:020000040000FA
:10000000D841001001030000090300000B030000A9
:100010000D0300000F0300001103000000000000AA
:100020000000000000000000000000003502000099
:100030001503000000000000AD020000E90200000E
:100040001B0300001B030000DD2200001B03000057
:100050001B0300001B0300001B0300001B03000028
:100060001B0300001B0300001B0300001B03000018
:100070001B030000F91700001B0300001519000006
:100080001B0300001B0300001B0300001B030000F8
:100090001B0300001B0300001B0300001B030000E8
:1000A0001B0300001B030000ED0E00001B030000FB
:1000B0001B0300001B0300001B0300001B030000C8
:1000C0001B0300001B0300001B03000000F002F8EC
:1000D00000F068F80AA090E8000C82448344AAF17A
:1000E0000107DA4501D100F05DF8AFF2090EBAE878
:1000F0000F0013F0010F18BFFB1A43F0010318475C
:1001000098720000B8720000103A24BF78C878C115
:10011000FAD8520724BF30C830C144BF04680C600D
:10012000704700000023002400250026103A28BF55
:1001300078C1FBD8520728BF30C148BF0B60704759
:100140006E2900F02F82702900F0FC82692900F0EE
:10015000ED81642900F0EA81752900F0E7816F29BB
:1001600000F09282782900F0E0820368DB0928BF62
:1001700041F08001632900F01885732900F01D8586
:10018000E32900F02885002070471FB500F07AFEB3
:1001900004000020002105F05BFC401C60601FBDD6
:1001A00010B510BD00F049FE1146FFF7EEFF0FB489
:1001B00002F006F90FBC03F0A7FA00F076FE03B4D4
:1001C000FFF7EEFF03BC00F079FE000080F3098822
:1001D0007047EFF309807047684680F30988044848
:1001E0000078C00714BF0220032080F314887047F2
:1001F0004D700000DFF818C0EFF305831B0618BF31
:100200006047EFF31483DB0708BF604700DF7047E8
:1002100079480000DFF818C0EFF305831B0618BF0C
:100220006047EFF31483DB0708BF604700DF7047C8
:100230005D4A0000EFF30980816911F8021CF1B9F1
:1002400090E80F10E047EFF3098C8CE80700144B9F
:1002500093E8060091420FD039B12CE9F00FC1F8B4
:1002600028C00CB404F0DAFF0CBC1A60D2F828C025
:10027000BCE8F00F8CF309886FF0020E704710B5E0
:10028000084A1268914209D8074C54F8214090E876
:100290000F10A047EFF3098C8CE80F0010BD000091
:1002A0000C000010704400007044000004F04CFE8C
:1002B0000C4B93E80600914210D0EFF3098C2CE927
:1002C000F00FC1F828C00CB404F0A8FF0CBC1A60F1
:1002D000D2F828C0BCE8F00F8CF309886FF0020E4A
:1002E000704700000C00001005F060F8E0E7000027
:1002F00004F0AEFA05F05AF8DAE70000FFFFFFFF5E
:100300000948804709480047FEE7FEE7FEE7FEE7A9
:10031000FEE7FEE7FEE7FEE7FEE7FEE704480549E5
:10032000034A054B7047000011220000CD00000079
:10033000D83F0010D8410010D83F00100048704747
:10034000E400001053EA020C00F069802DE9F04B44
:100350004FF00006002B1FBFB3FA83F503FA05F434
:1003600024FA05F65E4012BF1643B2FA82F502FA8D
:1003700005F4C5F120051EBF22FA05FC44EA0C0471
:10038000203556EA044C4FEA144418BF641C4FF061
:1003900000084FF00009904271EB030C39D300299B
:1003A00019BFB1FA81F701FA07F6B0FA80F700FA3F
:1003B00007F6C7F120071EBF20FA07FC46EA0C0625
:1003C0002037B6FBF4FCA7EB0507103F07F01F0B27
:1003D000CBF120062CFA06F60CFA0BFB44BFB34611
:1003E0000026202FA4BF5E464FF0000B5BEA060CF0
:1003F00008BF4FF0010B19EB0B0948EB0608ABFBEC
:10040000027C06FB02CC0BFB03CCC01B71EB0C0186
:10041000C1E70B46024641464846BDE8F08B13B59E
:10042000084318BF4FF0FF300146AFF30080BDE82E
:100430001C4070470FB41CB50C0007AA009001D0F7
:100440002044401E074B7B4469460190069800F00B
:1004500082FB002C03D06946002000F08FFB1CBCFF
:100460005DF814FB3D07000070B50446856900681F
:10047000C10601D5302600E02026C00707D070BD98
:10048000D4E9012130469047206A401C20626D1E4D
:10049000F6D570BD70B5044685690078C00707D1F0
:1004A00070BDD4E9012120209047206A401C2062C1
:1004B0006D1EF6D570BD09684A0501D540B270477A
:1004C000C905FCD500B2704709684A0501D5C0B21C
:1004D0007047C905FCD580B2704770B50C4605461B
:1004E000012A05D02878800600D5EA69002302E0B9
:1004F000012305E05B1C934202D2E05C0028F9D1A5
:10050000A869E618C01AA861286A18442862284613
:10051000FFF7AAFF04E0D5E9012114F8010B904789
:10052000B442F8D32846FFF7B5FF70BD2DE9F0417E
:100530000646002410687529314616A510D0FFF72D
:10054000BAFF002802DA404213A507E031688A07A3
:1005500001D512A502E0490704D511A5012401E047
:10056000FFF7B2FF00210A2206F1240709E0B0FBE1
:10057000F2FCB0FBF2F302FB1C003030785418465A
:10058000491C0028F3D123462A463046BDE8F041F5
:1005900000F083BA000000002D0000002B000000D6
:1005A0002000000011680268006A530501D5087038
:1005B0000AE0D30501D5088006E0130603D5C2176B
:1005C000C1E9000200E00860012070472DE9FF5FEB
:1005D00015468A460446DFF8AC80F8440027D8E97F
:1005E00000103E46CDE9001010E03AF816106A46B9
:1005F00002A800F034FB411C07D02178890603D5FE
:10060000E269391891420DD80744761C207880069B
:1006100002D5E069B84205DDAE42E6DB3AF81600E5
:100620000028E2D1A069C01BA0612046FFF71CFF93
:10063000D8E90010CDE90010002017E03AF81810B2
:100640006A4602A800F00BFBB0F1FF3F81460BD0D9
:1006500000250DF1080B05E0D4E901211BF8050088
:1006600090476D1C4D45F7D308F10100B04280461C
:10067000E4DB206A384420622046FFF70BFFBDE828
:10068000FF9F00009E54000070B50446214610688C
:10069000FFF71AFF002104F1240505E000F007022E
:1006A0003032C0086A54491C0028F7D12068002362
:1006B00008A2050708D500F02000084304D0E0692F
:1006C000012305A2401EE0612046BDE8704000F015
:1006D000E4B900000000000030000000F0B40D4656
:1006E0000188090502D51B4C7C4402E0194C7C446E
:1006F0000E34002100F1240305E002F00F06120978
:10070000A65D5E54491C002AF7D102780023120727
:1007100004D5702D06D009B1022311342246F0BC55
:1007200000F0BBB901231034F8E770B504460D465C
:1007300021461068FFF7C8FE024629462046BDE85C
:100740007040CBE70368126843F02003036008237E
:10075000C361C3E7985300002DE9F05F8946044662
:100760004FF0000ADFF874B1FB44C0F820A0204627
:10077000E1688847002874D0252806D0D4E90121F3
:100780009047206A401C2062F1E700265F46204621
:10079000E16888472028054607DB312D05D2781906
:1007A00010F8200C08B10643F1E7B00701D526F098
:1007B0000406C4F81CA00027C4F818A02A2D09D0EC
:1007C000284603F07AFE38B304EB8708303DC8F8BA
:1007D000185019E059F8041B204604EB8702916178
:1007E000E1688847012F054618D1E069002820DA22
:1007F00026F020061DE0D8F8180000EB800005EB7D
:1008000040003038C8F818002046E168884705469F
:1008100003F053FE0028EED1012F0AD02E2D08D16F
:100820002046E16888477F1C0546022F46F02006D7
:10083000C4DBA069002803DA404246F00106A0614B
:10084000F00701D026F010066C2D0BD0682D09D0D2
:100850004C2D39D06A2D35D0742D35D07A2D33D02A
:1008600016E038E0E1682F4620468847B842054642
:1008700009D16C2F26D04FF48060E16806432046F2
:100880008847054604E06C2F1AD04FF48070064369
:100890000DB3A5F14100192802D8203546F40066B1
:1008A0004A462946204626604E46FFF749FC80B15D
:1008B00001280BD0F61D26F0070000F1080956E7C5
:1008C0004020E4E78020D8E70020D6E706F10409BD
:1008D0004DE7284652E7206ABDE8F09F40530000EC
:1008E00070B5064600F0D7F80468054630460A227F
:1008F000002100F07CF92C6070BD0000014A00F07E
:10090000D3B900002C00001030B505460B462A462E
:1009100013F8014B12F8010B08B1A042F8D01CB13A
:10092000002802D06D1CF1E7284630BD40EA0103E3
:1009300010B59B070FD1042A0DD310C808C9121F88
:100940009C42F8D020BA19BA884201D9012010BDC2
:100950004FF0FF3010BD1AB1D30703D0521C07E08F
:10096000002010BD10F8013B11F8014B1B1B07D1F3
:1009700010F8013B11F8014B1B1B01D1921EF1D164
:10098000184610BD032A40F2308010F0030C00F02E
:10099000158011F8013BBCF1020F624498BF11F8B9
:1009A00001CB00F8013B38BF11F8013BA2F1040272
:1009B00098BF00F801CB38BF00F8013B11F00303EA
:1009C00000F09481083AC0F0088051F8043B083ADE
:1009D00051F804CBA0E80810F5E7121D5CBF51F8F0
:1009E000043B40F8043BAFF30080D20724BF11F86A
:1009F000013B11F801CB48BF11F8012B24BF00F8CF
:100A0000013B00F801CB48BF00F8012B7047000004
:100A10004FF0013C50F8042B51F8043B9A4221D18D
:100A2000A2EB0C03934313EACC1317D150F8042B19
:100A300051F8043B9A4215D1A2EB0C03934313EAFD
:100A4000CC130BD150F8042B51F8043B9A4209D136
:100A5000A2EB0C03934313EACC13DBD04FF000005E
:100A6000704700BFD01A01BAB1FA81F101F0180144
:100A700022FA01F0CB40DBB2C0B2C01AC1F12001B2
:100A80002CFA01F3D11A914311EAC311E6D1704750
:100A900070477047704701F053BC2DE9F0470D4691
:100AA00099469246044600F124080168880604D558
:100AB000E06921F01001216000E00120A84201DD81
:100AC000471B00E00027A1697A1902EB0900081A08
:100AD000A0612078C00602D42046FFF7C5FC00269E
:100AE00008E0D4E901211AF806009047206A401C6A
:100AF000761C20624E45F4DB2078C0060AD52046DD
:100B0000FFF7B2FC06E0D4E9012130209047206ACB
:100B1000401C2062381EA7F10107F4DC07E0D4E98D
:100B2000012118F805009047206A401C2062281E09
:100B3000A5F10105F3DC2046FFF7ACFC20780006A8
:100B400002D50220BDE8F0870120FBE701694A1CBD
:100B500002610878704700B58FB0CDE901310021FE
:100B6000059105497944CDE9031011466846FFF720
:100B7000F3FD0FB000BD0000E5FFFFFF0A6802F8BB
:100B8000010B0A607047D1E900239A4202D2531C3C
:100B90000B601070704710B5436913B1AFF300805C
:100BA00001E0FFF79AFC012010BD127800F124014A
:100BB0000A7000224A700122EDE711684FF0FF32FF
:100BC000E9E710B5436913B1AFF3008001E0FFF727
:100BD000FDFC012010BD128800F124018284002256
:100BE000C2840122EDE711684FF0FF32E9E72DE9F9
:100BF000F04791460F4680460446002614F8015BF4
:100C00002DB100F0A5F80068405DC007F6D12B2D8E
:100C100002D02D2D18D0641E4A463946204600F0D9
:100C20009FF827B13968A14201D1C7F800804FF081
:100C3000020471050BD54042002803DDFFF72BFFAE
:100C40000460A007BDE8F08746F48066E4E700286A
:100C5000F8DAFFF720FF04606FF00040F2E72DE9BB
:100C6000F04116460C46054600F072F8036893F80A
:100C70000101012807D0FF2C12D8185D80B1012096
:100C80002C70BDE8F081D3F807013246214603F20B
:100C90000713C7182846BC46BDE8F041002360474B
:100CA0004FF0FF30EDE700002DE9F04115460E460C
:100CB000040002D12C6804B90BA4204600F0AFF860
:100CC0000444207870B127463146384600F097F842
:100CD0000444207810B1002004F8010B38462C6041
:100CE000BDE8F0810027F9E70000000010B5203AC8
:100CF000C0F00B80B1E81850A0E81850B1E81850C7
:100D0000A0E81850203ABFF4F5AF5FEA027C24BF98
:100D1000B1E81850A0E8185044BF18C918C0BDE881
:100D200010405FEA827C24BF51F8043B40F8043B4A
:100D300008BF7047D20728BF31F8023B48BF11F8FF
:100D4000012B28BF20F8023B48BF00F8012B704759
:100D500010B500F097F8001D10BD00BFF54C000065
:100D60002DE9F05F824615468B4600270AF1010403
:100D7000B9460078302801D09DB113E014F8010B7A
:100D80000127782803D0582801D045B10AE00DB1D9
:100D9000102D07D1002714F8010B102502E00825BB
:100DA00000E00A250026B0460EE005FB080005FB22
:100DB00006F101271FFA80F801EB1046B6F5803FD7
:100DC00000D3B94614F8010B294600F060F800285A
:100DD000EBDABBF1000F05D00FB1641E00E0544602
:100DE000CBF80040B9F1000F06D0FFF754FE022106
:100DF0000160C81EBDE8F09F48EA0640FAE730B53A
:100E000003461D781DB10A4603E0AC4201D1181A11
:100E100030BD12F8014B002CF7D15B1CF1E730B567
:100E200003461D783DB10A4612F8014B1CB1AC4295
:100E3000FAD15B1CF5E7181A30BD7546FFF77EFA4C
:100E4000AE4605006946534620F00700854618B0B7
:100E500020B5FFF763FABDE820404FF000064FF0E1
:100E600000074FF000084FF0000BAC46ACE8C0099B
:100E7000ACE8C009ACE8C009ACE8C00921F0070142
:100E80008D46704710B5FFF759FA203010BD3A284B
:100E900000D2303820F02002412A01D3A2F13700DD
:100EA000884201D34FF0FF30704710B50446AFF3CE
:100EB00000802046BDE81040FFF781B901491820A5
:100EC000ABBEFEE72600020070470000012101FAD8
:100ED00000F040F24411C043C1F2000151E8002F7C
:100EE000024041E80023002BF8D170472DE9F04182
:100EF00044F2000640F248180025C5F2000601271A
:100F0000C1F2000805E000BF0135082D08BFBDE8AB
:100F1000F081316807FA05F00142F5D071680142AD
:100F20001ABFB06001240024F16801421CBF0234E2
:100F30003061E8B2FFF7CAFF58F825100029E3D066
:100F400020468847E0E70000B0B500F0BFFB222054
:100F500003F00AFA03F03CFA40F23C054FF49634F1
:100F6000C1F20005288803F01DFA013CFAD103F014
:100F70003DFA0020B0BD00002DE9F04740F2BC175B
:100F8000C1F2000714463A68002A4FD016885588E7
:100F9000D2F80490D2F80C8032462B4600F03EFB8B
:100FA000222003F0E1F903F013FA38684088C0B357
:100FB000F01DC008A4EB0901484300FB058440F282
:100FC000F61940F23C0A4FF00008C1F20009C1F2E4
:100FD000000A06E0386808F10108408801348045BD
:100FE0001FD2386800880028F4D0002605E000BF32
:100FF0003868013600888642ECD2207806F0070572
:10100000E840C007484608BF5046008803F0CAF9C8
:10101000072DEDD1386800880138864218BF0134A9
:10102000E6E703F0E3F90020BDE8F0874FF0FF307A
:10103000BDE8F087F0B581B01346127892B140F266
:10104000BC170C4605465E1EC1F200072846214625
:10105000FFF792FF3868B2780088002A054406F14D
:101060000106F3D1002001B0F0BD000070B582B0E0
:10107000012000F04DFB0024002006210022002367
:10108000009400F07FFB00200621012200F04EFBBF
:1010900000200621012200F02DFB02F0ABFC0446EB
:1010A00045F6C820C0F2000081680569466A002044
:1010B00088470220A84748F201304BF62041C0F291
:1010C0000800C0F2BE01B04714B902F0E9FC0446C2
:1010D00040F26810C1F20000472C40F00681012167
:1010E0000170EA20002103F08BF9EB20202103F0AE
:1010F00087F9EC200C2103F083F9ED20C72103F0E0
:101100007FF9E820382103F07BF9E920102103F072
:1011100077F9F120012103F073F9F220102103F097
:101120006FF94020012103F06BF94120002103F009
:1011300067F94220002103F063F94320102103F0F6
:101140005FF944200E2103F05BF94520242103F0D0
:1011500057F94620042103F053F94720502103F0AA
:101160004FF94820022103F04BF94920132103F0E5
:1011700047F94A20192103F043F94B20192103F0C4
:101180003FF94C20162103F03BF950201B2103F0BE
:1011900037F95120312103F033F952202F2103F088
:1011A0002FF953203F2103F02BF954203F2103F066
:1011B00027F955203E2103F023F956202F2103F073
:1011C0001FF957207B2103F01BF95820092103F058
:1011D00017F95920062103F013F95A20062103F0CC
:1011E0000FF95B200C2103F00BF95C201D2103F0AB
:1011F00007F95D20CC2103F003F91B201B2103F02C
:10120000FFF81A20012103F0FBF824202F2103F01E
:10121000F7F82520572103F0F3F82320882103F065
:10122000EFF81820362103F0EBF81920012103F024
:10123000E7F80120002103F0E3F81F20882103F0E4
:10124000DFF8142002F058F81F20822103F0D8F8AC
:10125000052002F051F81F20922103F0D1F805205B
:1012600002F04AF81F20D22103F0CAF8052002F04C
:1012700043F81720552103F0C3F80020002103F0A4
:10128000BFF82F20112103F0BBF83120002103F01B
:10129000B7F83220002103F0B3F82820382103F0FA
:1012A000AFF8142002F028F828203C2103F0A8F819
:1012B0001620A82103F0A4F80E20002103F0A0F8C6
:1012C0000F20002103F09CF81020012103F098F872
:1012D0001120402103F094F81220002103F090F82F
:1012E0001320002103F08CF878E100210170012027
:1012F0004FF4807103F084F802204FF4E06103F0B2
:101300007FF80420002103F07BF8082040F2072139
:1013100003F076F80920002103F072F80A2000217A
:1013200003F06EF80C20002103F06AF80D20002174
:1013300003F066F80F20002103F062F8102000216E
:1013400003F05EF81120002103F05AF8122000216A
:1013500003F056F81320002103F052F8142001F096
:10136000CBFF102041F2B02103F04AF811200721F1
:1013700003F046F8052001F0BFFF122040F2BD1136
:1013800003F03EF8052001F0B7FF13204FF4A05101
:1013900003F036F829200E2103F032F8052001F081
:1013A000ABFF2020002103F02BF82120002103F0C7
:1013B00027F842F29350844252D045F208408442CA
:1013C0007AD1302040F60D3103F01AF8312041F681
:1013D000231103F015F8322041F6264103F010F8EE
:1013E000332042F21C6103F00BF8342042F2194121
:1013F00003F006F8352040F60B5103F001F83620D3
:1014000041F2060102F0FCFF37204FF4C26102F006
:10141000F7FF382040F2067102F0F2FF39204FF456
:10142000417102F0EDFF3A2040F6056102F0E8FF5D
:101430003B2040F6016102F0E3FF3C204FF487714E
:1014400002F0DEFF3D2040F20E5102F0D9FF3E20B7
:1014500040F2034102F0D4FF3F2040F2076158E020
:101460003020002102F0CCFF312040F2076102F071
:10147000C7FF322040F2053102F0C2FF35200021C3
:1014800002F0BEFF362041F2046102F0B9FF3720BE
:101490004FF4017102F0B4FF3820012102F0B0FFD7
:1014A000392040F2077102F0ABFF3C20002102F02E
:1014B000A7FF3D200F212CE03020062102F0A0FFE5
:1014C000312040F2011102F09BFF3220032102F093
:1014D00097FF35204FF4837102F092FF362040F6DB
:1014E000023102F08DFF372040F2023102F088FF16
:1014F000382040F2077102F083FF3920072102F003
:101500007FFF3C204FF4C06102F07AFF3D2040F2A3
:101510000B2102F075FF5020002102F071FF5120D5
:10152000EF2102F06DFF5220002102F069FF5320ED
:1015300040F23F1102F064FF42F2935084424FF4B4
:101540001C5105D045F20840844218BF4FF4274192
:10155000602002F055FF6120012102F051FF6A2056
:10156000002102F04DFF8020002102F049FF812080
:10157000002102F045FF8220002102F041FF83207C
:10158000002102F03DFF8420002102F039FF852078
:10159000002102F035FF9020102102F031FF92204F
:1015A000002102F02DFF9320032102F029FF952056
:1015B0004FF4887102F024FF9720002102F020FFF1
:1015C0009820002102F01CFF032041F2380102F0B4
:1015D00017FF072040F2371102F012FF04201C21F0
:1015E000012200F087F8002002B070BD40F23C02FA
:1015F0000146C1F2000200201180704740F2BC1287
:101600000146C1F2000200201160704740F2F6125C
:101610000146C1F200020020118070472DE9F0411F
:10162000174640F26812C1F2000212781E460C46BC
:10163000012A054629D17819471E3019461EC5F3DF
:101640000F21022002F0DCFEE9B2032002F0D8FEF6
:10165000C7F30F21042002F0D3FEF9B2052002F0F7
:10166000CFFEC4F30F21062002F0CAFEE1B207202C
:1016700002F0C6FEC6F30F21082002F0C1FEF1B24F
:10168000092002F0BDFEBDE8F0811FFA84F8502069
:10169000414602F0B5FE3019013881B2512002F006
:1016A000AFFEACB25220214602F0AAFE78190138F2
:1016B00081B2532002F0A4FE2020414602F0A0FE99
:1016C0002120214602F09CFEBDE8F08180B500207B
:1016D00000214FF4A072F023FFF7A0FF80BD0000AF
:1016E0004CF214024001C2F209021058C84000F046
:1016F00001007047012303FA01F14CF20003C2F22A
:101700000903002A03EB40100CBFC16181617047DF
:101710004CF2C401C4F20F010A68002842F40043ED
:1017200008BF22F400430B60704700004CF2000336
:101730004FF0010CC2F209030CFA01F14001002A3A
:101740001A580CBF22EA01011143195070470000DA
:101750004CF2A810C4F20F00006806A1C0F30150BB
:1017600051F8200040F23801C1F200010968B1FBD4
:10177000F0F07047040000000100000002000000CB
:1017800008000000F0B54CF2680C4FF0000E012488
:10179000C600C4F2020C0F2988BF4FF0010E04FAF4
:1017A00001F488BF103946EA8E06C9B26644490082
:1017B000032756F8685C8F40BD4346F8685C56F8CE
:1017C000685C8A402A4346F8682C56F8282C03FAAD
:1017D00001F1BA4346F8282C56F8282C059D1143F0
:1017E00046F8281C5CF82010012D0CBF2143A143B2
:1017F0004CF820100020F0BDB0B50024C4F2020463
:1018000065680120E906E0610CD540F26C11C1F277
:101810000001096840F27612C1F20002107009B1AD
:1018200004208847A8060DD540F26C11C1F20001D2
:10183000096840F27410C1F200000122027009B17F
:1018400002208847280658D540F27810C1F20000DF
:101850000168026991421DD98568A5B16B1C83603E
:1018600095F800C023685B070FD5236813F4706FE9
:1018700003D0236813F4706F07D0AB1C83606B78C0
:101880004CEA032C01E0B0F818C01FFA8CF30132C7
:10189000A3600261C26891422FD9A168426892B1E7
:1018A000531C43601170226852070CD5226812F451
:1018B000706F03D0226812F4706F04D04268090A76
:1018C000531C43601170C168026801319142C160CC
:1018D00013D1206840F26C1120F080002060C1F22A
:1018E0000001096840F27010C1F2000000220029D6
:1018F000027008BFB0BD01208847B0BD80B500F0C0
:1019000031F880BD80B500F009FA80BD80B500F0E7
:1019100013FA80BD80B500F01FFA80BD80B500F0DD
:1019200083FA002080BD000080B500F0BBFA80BDC6
:1019300080B500F02FFB80BD80B500F057FB80BD67
:1019400080B500F07FFB80BD80B500F0AFFB0020CC
:1019500080BD00000620704740F20320C0F2052041
:10196000704700002DE9F04F83B040F2941AC1F2A5
:10197000000A9AF807200E46910702D44FF0FF356F
:1019800023E0C4B20746142C1AD10020C4F203008D
:101990004168002521F00201416040F2A011C1F22E
:1019A00000014561C1E90055C1E90255C1E904558D
:1019B0008D618AF80450416841F00201416004E001
:1019C0009AF8040028B16FF00105284603B0BDE87D
:1019D000F08F132C6FF00305F7D8DFE804F00E2228
:1019E000870B0B0A0A0A0A0A0A0A0A0A0A0A3ABCF6
:1019F000CBD2EAE76FF00605E7E70020C4F2030068
:101A00004168002521F0020141604561DAF80800D3
:101A100020F0FF00CAF8080002F0FB008AF8070077
:101A2000D3E70020C4F20300416821F002014160C5
:101A300000214161416821F00401416001218AF8DF
:101A4000081042F004018AF80710416841F00201D1
:101A50004160002E00F0AE800297FFF779FE03018F
:101A60004FEA06184FF0020C4FF0000B4FF0000940
:101A700002250020294604E02944B2F5807F104663
:101A800012D0B3FBF1F7B84518D000F10102F3D939
:101A9000A8EB0B06E646A8EB070C6645F44682BFAA
:101AA000AC468146BB46E7E7FD2D05F10205E0D3D4
:101AB000BBF1000F04D14FF0FF3586E7AC468146FD
:101AC00000215FFA8CF0C4F2030108610868102C51
:101AD00020F47F4008604FEA09200A6880B240EA9B
:101AE00002000860029F19D100256EE70020C4F2B1
:101AF0000300416821F002014160416841F00401A6
:101B000041600121416102218AF8081042F004017C
:101B10008AF80710416841F002014160DAF80800D4
:101B2000C1B2012940F08180C7F3C141DFE801F073
:101B3000024867AB40F23601C1F2000108784978EB
:101B40000026002200230096FFF71CFEDAF80800AA
:101B500020F4C01067E0FFF7FBFD0021C4F2030191
:101B60000A690968D2B2C1F3072101315143B0FBC0
:101B7000F1F52AE740F2A010C1F20000068300252B
:101B800023E7DAF80800FF21C0F21801084001211C
:101B9000C0F20801884210D140F23601C1F20001C2
:101BA00008784978002E00F0758000220025FFF7A4
:101BB000A1FD0AE74FF0FF3507E74FF0FF3504E7D7
:101BC00040F23604C1F2000420F4C012207861789B
:101BD000CAF808200026002203230096FFF7D2FD52
:101BE000207861780122FFF7A1FD20786178012239
:101BF000FFF780FDDAF8080040F4002013E040F21F
:101C00003601C1F2000120F4C01208784978CAF800
:101C100008200026022203230096FFF7B3FDDAF81E
:101C2000080040F48010CAF80800DAF80800C1B2D1
:101C3000022911D120F40010B902CAF808001FD4FB
:101C400040F23601C1F200010878497800260222EC
:101C500003230096FFF796FDC7F3022105291ED83E
:101C60000020C4F20300DFE801F0031D29353D40E8
:101C7000016821F030010160016821F0C00138E005
:101C80006FF00A05A1E620F4C010CAF808006FF052
:101C90000A059AE60122FFF72DFD002595E66FF073
:101CA000070592E6016821F030010160016821F02A
:101CB00040010160016841F080011AE0016821F0F3
:101CC00030010160016841F040010160016821F0CC
:101CD00080010EE0016821F030010160016841F0EF
:101CE000C00106E00168012201E00168022262F3FE
:101CF00005110160C7F305310A1F0C2A0BD80268D1
:101D0000013922F00F021143016078036FF00901DD
:101D100001EAE07559E66FF0080556E640F29410C6
:101D2000C1F2000040F2A011C079C1F20001C968FF
:101D3000400701EAE070704740F29410C1F20000E1
:101D400001794279807901F0010162F3410100F0EB
:101D5000010041EA8000704710B50020C4F2030082
:101D6000C46904F003010162C168890740F2A0114F
:101D7000C1F200011BD50B68D1F810E0734516D9EC
:101D80008B6863B15A1C8A6093F800C0026812071E
:101D900007D59A1C8A605A784CEA022C01E0B1F807
:101DA00018C01FFA8CF282600EF101020A61C2684B
:101DB000520729D5D0F808C00B68CA68934223D9C6
:101DC0004B686BB15A1C4A6083F800C00268120766
:101DD00006D54A684FEA1C2C531C4B6082F800C0A1
:101DE000CA680B6801329A42CA600DD1416900226B
:101DF00021F00F01416140F29410C1F2000001682E
:101E0000027109B101208847E0070BD040F294101D
:101E1000C1F20000016801220029427108BF10BD13
:101E20000220884710BD0000B0B582B040F2941483
:101E3000C1F20004E179C90731D1206040F2A0105D
:101E400040F234010025C1F20000C1F20001C0E9F6
:101E50000055C0E90255C0E9045585610878497804
:101E600002220023A580A5710095FFF78BFC40F2AC
:101E70003001C1F200010878497802220023009560
:101E8000FFF780FC40F23201C1F200010878497886
:101E9000022200230095FFF775FC0120E07102B0DB
:101EA000B0BD000010B5022835D0002868D100F080
:101EB0002BFA4CF2C400C4F20F000168002441F474
:101EC000806101600C21C4F2030103228C608C61EB
:101ED00041F80C4C41F8084C4C604A61016821F40F
:101EE0008061016000F008FA40F2941040F2A01105
:101EF000C1F20000C1F20001C1E90044C1E902449D
:101F0000C1E904448C61C179848001F0FD018471D0
:101F1000C171204610BD40F29410C1F20000C17999
:101F2000CA0704BF4FF0FF3010BD8A074FF000040E
:101F30002ED44CF2C40EC4F20F0EDEF8002041F095
:101F4000020142F48062CEF80020DEF8E42022F4A0
:101F50004012CEF8E420DEF8E4C00C224CF48013EA
:101F6000C4F20302CEF8E43003239460536184800A
:101F70008471C1711068400705D552F8040CF9E767
:101F80006FF0030010BD00F0B7F900F0D1F90024A4
:101F9000204610BD024600286FF0040018BF00293B
:101FA00000D1704740F29413C1F20003D879400782
:101FB0005CBF4FF0FF307047187900281CBF6FF0EE
:101FC00001007047012098800020987140F2A01312
:101FD000C1F20003C3E900121421C4F203010F226D
:101FE000C3E9020018610A60704700000246002839
:101FF0006FF0040018BF002900D1704740F294131D
:10200000C1F20003D87940075CBF4FF0FF30704742
:10201000187900281CBF6FF00100704701209880DC
:102020000020987140F2A013C1F20003C3E9001030
:102030001421C3E90220C4F203010F2218610A60CF
:1020400070470000034600286FF0040018BF002905
:1020500000D17047002A08BF704740F2941CC1F2BB
:10206000000C9CF8070040075CBF4FF0FF30704742
:102070009CF8040000281CBF6FF00100704701208D
:10208000ACF8040000208CF8060040F2A01CC1F25D
:10209000000CCCE900211421C4F203010F22CCE989
:1020A0000230CCF810000A607047000010B582B012
:1020B00040F23601C1F2000108784978002400227C
:1020C00000230094FFF75EFB40F23401C1F20001EF
:1020D00008784978002200230094FFF753FB40F270
:1020E0003001C1F2000108784978002200230094F1
:1020F000FFF748FB40F23201C1F20001087849784D
:10210000002200230094FFF73DFB40F29410C1F23F
:102110000000C47102B010BD10B54CF28804C4F2C6
:102120000F042068D4F8841000F04070B0F1407FB4
:1021300001F003001BD1DFE800F002284002206814
:102140002268400080B240F600110230C0F23D012A
:10215000C2F30742A0FB010101320023FEF7F2F8AF
:10216000E26F0023D2B20132FEF7ECF84AE0DFE87A
:1021700000F002384202E06F40F60011C0B20130B8
:10218000C0F23D01B1FBF0F03CE020682268400065
:1021900080B241F600310230C0F2B701C2F307420B
:1021A000A0FB010101320023FEF7CCF8E26F00230F
:1021B000D2B20132FEF7C6F824E020680021C7F64B
:1021C000FF7101EA0040216800F58030C1F307414A
:1021D000E26F0131B0FBF1F0D1B20131B0FBF1F0AF
:1021E00010E0E06F41F60031C0B20130C0F2B7013B
:1021F000B1FBF0F006E0E06F4FF40041C0B20130F7
:10220000B1FBF0F040F23801C1F20001086010BDEE
:102210004CF28C00C4F20F002021C0F81411D0F849
:102220001411890604D500BFD0F814114906FBD556
:102230000321816700216322C0F81C11C0F820111E
:102240000121C0F20502C0F8801040F8082CAA2233
:1022500055230260036040F80C1C0260036000BF5D
:1022600050F8041C4901FBD5032140F80C1CAA219D
:1022700001605521016000BF50F8041C01F040715D
:10228000B1F1407FF8D123218161AA215522012398
:102290000162026243610162026200BFC1694905D5
:1022A000FCD503214161AA2101625521016200BFD1
:1022B000C16901F44071B1F5407FF9D148F2DE7196
:1022C000C0F2284181630021C0F83C1150F88C1CF9
:1022D000042262F30F3140F88C1C704780B548F23D
:1022E0000000C4F200000168C90708BF80BD0121D9
:1022F000016002F01BF880BD4EF28020CEF200009B
:102300004FF40041016070474EF28010CEF20000A1
:102310004FF400410160BFF34F8FBFF36F8F7047E1
:102320004EF20010CEF20000042101607047000060
:102330004EF20010CEF200004FF4004101607047F1
:1023400080B540F20500C1F20000007800280CBF03
:10235000002003F0AFF943F6E82200EB4001C1F2A0
:10236000000202EB411240F2E401C1F20001002838
:1023700018BFA2F16001084680BD000040F20501CF
:10238000C1F200010978002908BF7047006844F6CF
:10239000D16CC0F2000C4FF6FF7100DF70470000F7
:1023A00040F20501C1F200010978002908BF704719
:1023B000006844F6F95CC0F2000C00DF70470000D2
:1023C00002F038F947F28C00C0F20000002102F060
:1023D000EDF902F041F900BFFEE700002DE9F04FF2
:1023E0008BB040F2DC10C1F2000000784CF2C00B60
:1023F00040F2F819C0F2C00B0028C1F200096DD1FB
:10240000D9F800004FF0FF3102F096F96FF07F40ED
:10241000FFF7ECF8FEF798FDFF20FFF7F7F8C2A2F0
:1024200000200021FEF706FE47F20400C0F2000083
:1024300047F2152847F2CE2947F2E02AA0F114040A
:102440003025C0F20008C0F20009C0F2000A0DF108
:10245000090700BF6FF07F40302D08BF5846FFF7D7
:10246000C5F80020FFF7D2F8002029464246FEF7C3
:10247000E1FD54F8143F5246A0682321066838460F
:10248000302D08BF4A460096FDF7D4FF00202946AC
:102490003A46FEF7CFFD1835782DDBD16FF07F403F
:1024A000FFF7A4F84FF47F00FFF7B0F8A4A20020D4
:1024B000A821FEF7BFFDA8A20020C021FEF7BAFDAB
:1024C00040F2F819C1F20009D9F8000002F028F929
:1024D00040F2DC110120C1F2000108704FF0FF371B
:1024E0000DF109054FF0000A002600240AE000BFA4
:1024F000142002F093F84FF00008DA46B8F1000F0C
:1025000040F00A8101F0EEFA834602F0DBF8811B0D
:102510009629EDD3B646012626EA0A01AC4601EA21
:102520000B01002C4FF000020AF00205C8BF621E2A
:1025300000290BF0020386EA550514BF2746224600
:1025400005EA5303022A4FF00204B8BF541C002BC3
:1025500014BF174614465FEA0A7241EA030100F10C
:10256000C78047F204031BF00802C0F200034FF0DB
:102570003008654676460DD004EB840103EB8101FB
:1025800089680A68643A0A600A68632ADCBF6422C0
:102590000A6001215FEACA6213D41BF0100210D056
:1025A00004EB840103EB8101896841F289330A68F5
:1025B00064320A600A689A42A4BF41F288320A6013
:1025C0000121002918BF06465FEA4A7210D41BF0A9
:1025D00004020DD040F2DC11C1F2000100220A70A9
:1025E0004FF006080646B8F1000F87D180E700BF1C
:1025F000002900F08A80D9F800004FF0FF310196E1
:1026000002F09AF847F21529781CC0F200092DD083
:102610006FF07F40FEF7EAFF0020FEF7F7FF07EBC1
:10262000470008EBC005002029464A46FEF702FD98
:1026300047F2040207EB8700C0F2000202EB8001C0
:10264000896852F82030D1F800C00DF1090647F230
:10265000E02230462321C0F20002CDF800C0FDF791
:10266000E9FE002029463246FEF7E4FC4CF2C000A9
:10267000C0F2C000FEF7BAFF002030254FF000087E
:10268000FEF7C4FF04EB440005EBC005002029461B
:102690004A46FEF7CFFC47F2040204EB8400C0F286
:1026A000000202EB8001896852F82030D1F800C0A6
:1026B0000DF1090647F2CE2230462321C0F2000276
:1026C000CDF800C0FDF7B6FE002029463246FEF7E1
:1026D000B1FC40F2F819C1F20009D9F8000002F08B
:1026E0001FF83546019EB8F1000F7FF407AFFFE6F3
:1026F00047F20403C0F200034FF030086546764607
:102700005FEACA627FF549AF5BE74FF00008B8F1B6
:10271000000F7FF4F3AEEBE64FF0FF3000F006FE63
:102720000BB0BDE8F08F00BF204348494E4820540D
:10273000484F49204749414E204241542000000063
:1027400020552F443A2043686F6E20204C2F523A78
:10275000204368696E6800002043454E5445523A54
:102760002054686F617400002DE9F04F89B040F289
:10277000F815C1F200052968044608464FF0FF31FC
:102780004FF0FF3701F0D8FF6FF07F40FEF72EFFCC
:10279000FEF7DAFBFF20FEF739FF47F2040104EBF6
:1027A0008400C0F2000151F820300DF106060094BB
:1027B00001EB800480A230461E21FDF73BFE002085
:1027C00000213246FEF736FC4FF47F00FEF71EFF75
:1027D0007DA20020A821FEF72DFC7FA20020C021B1
:1027E000FEF728FC0020FEF711FFD4F8049047F212
:1027F0003522D9F80030C0F2000230461E21FDF724
:1028000019FE002060213246FEF714FC286801F012
:1028100087FF4FF000084FF0000A07E0322001F078
:10282000FDFE0020B246002840F0BE8001F05AF9BB
:10283000064601F047FF40F2CC14C1F200042168C3
:10284000834608464FF0FF3101F076FF009840F2D2
:10285000D011C1F2000151F82050206801F060FF52
:10286000BD4220D040F2F814C1F2000420684FF0BD
:10287000FF3101F061FF6FF07F40FEF7B7FE0020EF
:10288000FEF7C4FE0DF1060738461E2158A22B465E
:10289000FDF7D0FD002030213A46FEF7CBFB206843
:1028A00001F03EFF2F46ABEB08009628B6D35FEA57
:1028B000CA704FF0000008D116F0010105D0D9F818
:1028C00000000A30C9F8000001205FEA8A7108D4CC
:1028D00016F0020105D0D9F800000A38C9F8000046
:1028E00001205FEACA6108D416F0100105D0D9F8BA
:1028F00000006430C9F8000001205FEA0A7108D4C2
:1029000016F0080105D0D9F800006438C9F80000B5
:102910000120A8B3D9F8000040F2F814B0F5805FA8
:10292000A4BF40F6FF70C9F80000D9F80000C1F25A
:102930000004B0F1FF3FDCBF0020C9F800002068B0
:102940004FF0FF3101F0F8FE6FF07F40FEF74EFED2
:102950000020FEF75BFED9F800300DF1060547F2C6
:10296000352228461E21C0F20002FDF763FD00203B
:1029700060212A46FEF75EFB206801F0D1FED846B2
:102980000AF00402012006F0040180EA920000EA45
:10299000910000281CBFD8460320002A7FF43EAFD8
:1029A00000297FF440AF39E74FF0FF3000F0BEFC64
:1029B00009B0BDE8F08F00BF20534554204E475565
:1029C0004F4E473A20257300204C2F523A202B2F90
:1029D0002D2031303000000020552F443A202B2F7D
:1029E0002D2031302020433A2054686F617400005C
:1029F00020414443204869656E207461693A20256E
:102A0000303464002DE9F04F8DB040F2E010C1F297
:102A1000000000784CF2C00647F2040947F266272E
:102A200047F27125C0F2C0060028C0F20009C0F2CA
:102A30000007C0F2000540F0868040F2F810C1F2B5
:102A4000000000684FF0FF3101F076FE6FF07F402C
:102A5000FEF7CCFDFEF778FAFF20FEF7D7FDB0A217
:102A6000002000210024FEF7E5FA47F2152847F27E
:102A70008B2A47F2572B3025C0F20008C0F2000A1B
:102A8000C0F2000B0DF111076FF07F40002C08BF62
:102A90003046FEF7ABFD0020FEF7B8FD00202946CA
:102AA0004246FEF7C7FA09EB040001695A46002CBA
:102AB00008BF5246C068496947F271260842C0F211
:102AC000000647F2662059F80430C0F2000008BF43
:102AD00006463846232100964CF2C006C0F2C006D6
:102AE000FDF7A8FC002029463A46FEF7A3FA143465
:102AF0003C2C05F11805C7D16FF07F40FEF776FD3D
:102B00004FF47F00FEF782FD8BA20020A821FEF784
:102B100091FA8EA20020C021FEF78CFA40F2F81044
:102B2000C1F20000006801F0FBFD40F2E01147F245
:102B3000662747F271250120C1F20001C0F20007AB
:102B4000C0F200050870002047F204094FF0FF3A78
:102B500000260DF1110B03900020C0F20009029035
:102B600009E000BF2546142001F058FD012046462B
:102B7000002800F0CE802C4600F0B4FF804601F023
:102B8000A1FD05460398281A9628EBD3F0074FF0CD
:102B900000000ED118F001010BD0DDF808A00021D3
:102BA0000120BAF1000FC8BFAAF101012A46CDE900
:102BB0000215B1070ED418F002010BD0DDF808A001
:102BC00002210120BAF1020FB8BF0AF101012A4621
:102BD000CDE9021516F0180F09D118F0180106D02A
:102BE0000298C0B201F09CF90120294603957107B3
:102BF0000ED418F004010BD040F2E0110020C1F215
:102C000000010870039525460028B4D181E000BF7B
:102C10000028A7D040F2F810C1F2000000684FF081
:102C2000FF3101F089FD1AF101004FF0300533D07A
:102C30006FF07F40FEF7DAFC0020FEF7E7FC0AEBBE
:102C40004A00302101EBC00547F215220020294639
:102C5000C0F20002FEF7EEF90AEB8A0009EB8001F0
:102C60000A69C968526959F82030114247F2712641
:102C700047F25722C0F2000658464FF02301C0F237
:102C8000000208BF3E460096FDF7D4FB002029460F
:102C90005A463025FEF7CEF94CF2C000C0F2C00013
:102CA000FEF7A4FC029E3C4606EB460005EBC0077F
:102CB00047F2152200203946C0F20002FEF7BAF9A9
:102CC00006EB860009EB80010A69C968526947F280
:102CD000712559F820301142C0F2000547F28B22CD
:102CE0002E4658464FF02301C0F2000208BF264688
:102CF0000096FDF79FFB002039465A46FEF79AF9E9
:102D000040F2F810C1F20000006801F009FD27460A
:102D100029E74FF0FF3000F009FB0DB0BDE8F08F60
:102D20002020204D414E55414C20434F4E54524F90
:102D30004C20202020000000204C454E2F58554F9D
:102D40004E472064652063686F6E00002054524136
:102D5000492F50484149206465206261742F746195
:102D600074000000047847F2040104EB8400C0F210
:102D7000000101EB800000F10C0100F110020830AD
:102D800040F2C0180E681768D0F8009040F2E515C0
:102D9000C1F20008C1F2000558F824004FF0FF31DD
:102DA00001F0F8FC28780228F6D1BE61D9F80000BD
:102DB00001F034FCFE61EFE72DE9F04F93B043F6EC
:102DC000D02A43F6D420C1F2000A4FF0000BC1F222
:102DD0000000CAF800B0C0F800B040F2E410C1F240
:102DE0000000007840F2F814C1F2000470BB2068C3
:102DF0004FF0FF3101F0A0FC6FF07F40FEF7F6FBD3
:102E0000FEF7A2F8FF20FEF701FC0FF25842002067
:102E10000021FEF70FF94FF47F00FEF7F7FB0FF2EA
:102E20005C420020A821FEF705F90FF2684200205D
:102E3000C021FEF7FFF8206801F072FC40F2E410B8
:102E40004FF0010BC1F2000080F800B04FF0FF30EE
:102E500040F25C0900270390C1F2000906AE0BADF9
:102E60004FF0FF304FF00008029009E040F2E4110B
:102E70000020C1F2000108700028274600F0EA8116
:102E800000F030FE059001F01DFC0446C01B9628A2
:102E900022D343F6D4225FEAC870C1F2000225D1E2
:102EA000DDF814C01CF0010075D0106808B310687C
:102EB00001282ED1DAF8000000EB400009EB800079
:102EC00040683A2842DCDAF8000000EB400009EBE9
:102ED0008000406801303AE043F6D4223C46C1F21B
:102EE0000002BBF1000F40F00181F4E0DDF814C0F6
:102EF00051E0DAF8000000EB400059F820001628F5
:102F00001CDCDAF8000000EB400059F8200001302A
:102F100015E01068022822D1DAF8000000EB40002A
:102F200009EB800080683A282ADCDAF8000000EB20
:102F3000400009EB80008068013022E00020DAF8D0
:102F4000001001EB410149F8210021E00020DAF8EE
:102F5000001001EB410109EB8101486018E01068A5
:102F6000013015D1DAF800000290DAF800000128EB
:102F7000A6BFDAF8000001380020CAF8000007E018
:102F80000020DAF8001001EB410109EB81018860B3
:102F90004FF0010B27465FEA88706CD41CF00200EA
:102FA00069D01068A0B11068012821D1DAF80000BA
:102FB00000EB400009EB80004068012846DBDAF8AE
:102FC000000000EB400009EB8000406801383EE063
:102FD000DAF8000000EB400059F8200001282DDB52
:102FE000DAF8000000EB400059F82000013826E034
:102FF0001068022811D1DAF8000000EB400009EB5C
:103000008000806801282ADBDAF8000000EB40002D
:1030100009EB80008068013822E01068013027D178
:10302000DAF800000290DAF800000128DABFDAF8D6
:10303000000001300220CAF8000019E01720DAF879
:10304000001001EB410149F8210011E03B20DAF8C2
:10305000001001EB410109EB8101486008E03B20D1
:10306000DAF8001001EB410109EB8101886000BF33
:103070004FF0010B27465FEA08700FD41CF00800E0
:103080000CD010684FF0010B039010682746002801
:103090005ABF106801384FF0FF3010605FEAC86017
:1030A0000ED41CF010000BD010684FF0010B0390F1
:1030B000106827460128DABF10680130022010602E
:1030C0005FEA487003D41CF004007FF4CFAE3C46A6
:1030D000BBF1000F0AD1DAF800000299814205D154
:1030E00010680399814200F0AE8000BF40F2F810F2
:1030F000C1F2000000684FF0FF31049401F01CFBA6
:103100006FF07F40FEF772FA47F2040809F10409F4
:1031100000274FF0300BC0F200083EE06FF07F4018
:10312000FEF764FA59F8043CD9F80000D9F80440D5
:103130000090304614215DA20194FDF77BF9DAF886
:10314000000047F24623874258F8140B47F2492102
:10315000C0F20003C0F2000147F2BE2208BF0B46D6
:10316000009028462021C0F200020196FDF762F986
:1031700047F2152200205946C0F20002FDF75AFF1F
:10318000002059462A46FDF755FF0BF1180B013771
:10319000BBF1780F09F10C093ED00020FEF736FA9A
:1031A000DAF800008742B9D14CF2C000C0F2C0008A
:1031B000FEF71CFA43F6D421C1F20001086868B199
:1031C0000868012818D159F8043CD9F80000D9F84A
:1031D000044000903046142142A2ADE759F8043C67
:1031E000D9F80000D9F8044047F298220090304600
:1031F0001421C0F200029FE7096859F8043CD9F88D
:103200000000D9F804400229009030464FF0140124
:1032100014BF2BA22EA28FE740F2F814C1F20004D3
:10322000206801F07DFADAF8000040F25C090290B3
:1032300043F6D420C1F200000068049C4FF0000B5C
:10324000C1F200090390142001F0E8F9DDF81480C0
:10325000012011E64FF0FF3000F068F813B0BDE830
:10326000F08F00BF20202043414920444154204892
:10327000454E2047494F20202000000020552F4474
:103280003A204368696E682054686F6E6720736FD8
:1032900000000000204C2F523A2043687579656E7B
:1032A0002020433A20586F6E6700000020253032FE
:1032B000643A253032643A25303264200000000040
:1032C000253032643A253032643A253032640000C9
:1032D000253032643A253032643A5B253032645D01
:1032E00000000000253032643A5B253032645D3ADC
:1032F000253032640000000040F23801C1F20001C4
:10330000096841F25972CDF2B712A1FB0212510BBA
:103310004843002808BF704700BF00BF00BF00BF80
:10332000013800BF00BFF7D1704700002DE9F04F12
:10333000C5B040F2E511C1F2000109788FA252F840
:10334000213009AC054690A220461E21FDF772F8F7
:1033500047F2F82104F11E00C0F200011622FDF729
:1033600011FB47F21030C0F2000090E88E00D0E967
:1033700004600DF1600C8CE88E0047F25831CDE905
:103380001C6004F15A00C0F200011522FDF7FAFAA0
:1033900047F27030C0F2000090E88E000DF19C0CF6
:1033A000008A8CE80E0047F24431ADF8AC0004F11D
:1033B0009600C0F2000114222A97FDF7E3FA47F2C3
:1033C0008430C0F2000090E88E000DF1D80C007C33
:1033D0008CE80E0047F228318DF8E80004F1D200A5
:1033E000C0F200011B223997FDF7CCFA40F2F81623
:1033F000C1F2000630684FF0FF3101F09DF9681C02
:1034000040F2F410C1F200005DD0007800285AD0DC
:1034100043F6D828C1F20008D8F80000A84200F00E
:10342000A6806FF07F40FEF7E1F80020FEF7EEF88F
:1034300005EB45004FF0180A47F215290AEBC007C3
:10344000C0F20009002039464A46FDF7F3FDC5EBFE
:10345000051047F2B9220DF1010504EB4003C0F25B
:10346000000228462321FCF7E5FF002039462A46C2
:10347000FDF7E0FD4CF2C000C0F2C000FEF7B6F868
:10348000D8F800004A4600EB40000AEBC0010020DB
:10349000FDF7D0FDD8F8000047F2C922C0EB0010BC
:1034A00004EB4003C0F2000228462321FCF7C2FFD0
:1034B000D8F800002A4600EB40000AEBC0010020CB
:1034C000FDF7B8FD53E04CF2C00A6FF07F40C0F248
:1034D000C00AFEF78BF8FDF737FD6FF07F40FEF76F
:1034E00095F8FF20FEF782F82AA20020002100278D
:1034F000FDF7A0FD43F6D82B47F2C92847F2B929BA
:10350000182409ADC1F2000BC0F20008C0F2000996
:103510000DF10106DBF800004A46874230464FF0C5
:1035200023012B4608BF4246FCF784FFDBF800006E
:1035300087426FF07F4008BF5046FEF757F80020E3
:10354000FEF764F80020214632460137FDF772FD90
:103550001834D82C05F11E05DCD140F2F4110120FD
:10356000C1F2000140F2F8160870C1F2000630689E
:1035700001F0D6F845B0BDE8F08F00BF2A72000018
:10358000807200004C720000312E204D6F64653A4D
:1035900020257300202020475245454E484F555363
:1035A00045204D454E552020200000004CF20400DF
:1035B000C4F20200016841F4A82101604CF2C40089
:1035C000C4F20F00016841F48051016044F2000030
:1035D00040F20741C4F20300C0F2200101607047CD
:1035E0004CF22000C2F20900016843F6FF4341F0AB
:1035F00030410160016ACFF6C07341F004010162FD
:103600004CF20C01C4F202010A681A400A600A6C0A
:103610001A400A64016821F0F261016070470000FD
:1036200080B5FFF7C3FFFFF7DBFF00F023F800F0E2
:1036300001F880BD10B54CF2C400C4F20F0001685F
:1036400048F2040441F004010160C4F200040220C5
:1036500020600020A06040F23800C1F20000006845
:103660000138606103202061FEF75AFE01202060CE
:1036700010BD00004CF2C400C4F20F00016841F01C
:10368000080101604CF20001C4F202010A6842F034
:1036900050020A60D0F8E400C0F38110DFE800F0C7
:1036A0000217091040F23800C1F2000000688008DB
:1036B00012E040F23800C1F20000006840080BE060
:1036C00040F23800C1F200000068C00804E040F297
:1036D0003800C1F20000006848F2B511C1F64E3161
:1036E000A0FB01014CF20C00C4F200008322027026
:1036F0008A0B890D00F8081C032100F80C2C0170BE
:10370000072100F8041C7047FEF706FDFFF788FF4D
:1037100000F090FF47F25800C0F2000000F0EAFF0E
:1037200040F2CC11C1F20001086047F25C00C0F227
:10373000000000F0DFFF40F2F811C1F20001086064
:1037400047F26000C0F2000000F0D4FF43F6D471ED
:10375000C1F20001086047F26800C0F200000121D8
:1037600000F0F6FF40F2C014C1F20004206047F2FE
:103770007000C0F200000021002700F0E9FF606047
:1037800047F26C00C0F20000002100F0E1FFA060F1
:1037900047F2CC00C0F20000002101F007F847F228
:1037A000FC00C0F20000002101F000F847F2EC003C
:1037B000C0F20000002100F0F9FF47F29C00C0F2C7
:1037C0000000002100F0F2FF47F2DC00C0F2000030
:1037D000002100F0EBFF40F2480847F2AC0447F24A
:1037E0007C05C1F20008C0F20004C0F2000500BF71
:1037F00008EB07062046314600F0D8FF2846314640
:1038000000F0D4FF0137032FF2D100F025FF00BFF5
:10381000FEE70000FFF7E4FEFDF728FC46F6F47033
:10382000C0F20000FDF7EAFE4FF0FF30FFF77EFD2B
:1038300043F6D826C1F20006346847F2040940F284
:10384000E5180025C0F20009C1F200080FE0306859
:10385000002813DD4FF0FF30316808443060204607
:10386000FFF764FD3468322000F0D8FE3D4600F0DA
:1038700039F90746002818BFAF4203D13068A0428B
:10388000EDD1F0E7F807E2D13068B9072CD417F092
:10389000180F2DD060BB380709D598F80000002814
:1038A0001ABF98F800000138022088F80000F806D6
:1038B00009D598F8000002281ABF98F800000130D6
:1038C000002088F80000002009EB0001D1E9032165
:1038D00014303C28CA61F7D14FF0FF30FFF726FDC6
:1038E000C82000F09BFEC9E70728C7DA0120B3E72C
:1038F0007807C3D5306801380628BFD8DFE800F064
:1039000004070A0D1115190000F098F9B6E7FFF742
:1039100079F8B3E7FFF750FAB0E70020FEF724FF8D
:10392000ACE70120FEF720FFA8E70220FEF71CFF0E
:10393000A4E7FEF753FDA1E790F8008047F20401E9
:1039400008EB8800C0F2000101EB8000011D00F1CE
:103950000C02103040F2E51540F2CC19D1F800B05D
:1039600014680668C1F20005C1F2000904E000BF56
:103970004FF4FA7000F052FE28780028F8D1D9F8F8
:1039800000004FF0FF3100F0D7FE40F2D010C1F23E
:10399000000050F82870DBF800A0D9F8000000F013
:1039A000BFFE1C205745C8BF18203450E0E7000078
:1039B000FEE70000FEE70000B0B545F6C820C0F203
:1039C0000000456A13200121A847732000F012FA75
:1039D000002000F00FFA002000F00CFA044600204E
:1039E00000F008FA40EA042413200021A8472046EA
:1039F000B0BD000010B582B00024002006210022D6
:103A000002230094FDF7BEFE0020072100220223BE
:103A10000094FDF7B7FE0020082100220223009445
:103A2000FDF7B0FE00200921002202230094FDF7DB
:103A3000A9FE002007210122FDF778FE00200621C3
:103A40000122FDF757FE002007210122FDF752FE5B
:103A5000002006210022FDF74DFE7020012100F01C
:103A6000E1F90020012100F0DDF90020062101220A
:103A7000FDF740FE002006210022FDF73BFE7320EB
:103A8000012100F0CFF90020002100F0CBF904461D
:103A9000002006210122FDF72DFE204602B010BDB8
:103AA00080B5002000F060FCFFF786FF80BD0000BD
:103AB00044F20001C4F203010A6822F007020A601E
:103AC00001220B6802FA00F018430860086840F011
:103AD000807008604868B0F1FF3FFBDC4868C0F3C5
:103AE0000B1070474CF23400C2F209000168022347
:103AF000C1F3C051026803EA126211440268042350
:103B000003EA924211440268082303EA5252006811
:103B10001144102202EA9050084480F01F007047C0
:103B2000B0B543F6D475C1F20005296804460846CD
:103B30004FF0FF3100F000FE207858B14CF2000148
:103B4000C4F200010A7D9206FCD5087014F8010F3A
:103B50000028F7D1286800F0E3FDB0BD94B047F22B
:103B6000040040F2CC15C0F2000040F2D01643F63B
:103B7000DC27C1F200050430C1F20006C1F20007E3
:103B80000DF1100A4FF0010B002403900BE000BF71
:103B900040F2CC15C1F20005286800F0C1FD4FF4D9
:103BA0007A7000F03BFD28684FF0FF3100F0C4FD53
:103BB000DDF80C904FF0000809E000BF47F82840FE
:103BC00008F10108B8F1030F09F11409E0D05FFA18
:103BD00088F0FFF76DFF46F8280056F82810D9F84E
:103BE000000002689142E9DD57F828100029E7D16A
:103BF00059F8043C56F828100568009150464021B9
:103C000004A20195FCF716FC5046FFF789FF47F820
:103C100028B0D5E721205741524E3A202573204144
:103C200044432028256429203E204D7563204E679B
:103C3000756F6E6720282564290A00002DE9F04F72
:103C40008FB040F2F814C1F2000420684FF0FF3149
:103C500000F072FD6FF07F40FDF7C8FCFDF774F9CE
:103C6000206800F05DFD0020059040F2D010C1F208
:103C700000000438049047F20400C0F2000040F253
:103C8000CC1614380DF11C08C1F2000603900FF297
:103C9000381B0020069009E04FF4FA7000F0BEFCDB
:103CA0004FF0010A0695BAF1000F6BD020684FF073
:103CB000FF31A14600F040FD6FF07F40FDF796FC1C
:103CC000FF20FDF7A3FC0020002132A2FDF7B2F98E
:103CD0000020FDF79BFC40F2E811C1F200010B68E7
:103CE00048688F6800904046202130A20197FCF779
:103CF000A1FB002030214246FDF79CF930684FF0CF
:103D0000FF31B24600F018FDDDE90347602500BF32
:103D100054F8143F57F8046F404620215A46009645
:103D2000FCF788FB002029464246FDF783F9183549
:103D3000A82DEDD1DAF80000564600F0F1FC4FF462
:103D40007F00FDF763FC0020C02124A24FF0000A91
:103D5000FDF770F9D9F800004C4600F0E1FCFFF7E0
:103D6000C1FE054600F0AEFC0699490794D415F053
:103D7000040191D00599411A95298DD90590BAF180
:103D8000000F93D14FF0FF30FFF7D0FA0FB0BDE82E
:103D9000F08F00BF202020202053454E534F52204B
:103DA0004441544120202020200000002054686F0E
:103DB00069206769616E3A20253032643A253032D5
:103DC000643A25303264000020252D39733A2025CD
:103DD0003034642F34303935000000002020416E2B
:103DE0002043454E5445522064652074686F6174C9
:103DF0000000000010B582B08DF8070045F6C8201D
:103E0000C0F20000C369846A0DF107000DF10601DC
:103E100001229847A047C007FCD19DF8060002B0D8
:103E200010BD0000F0B581B00546481EB0FA80F024
:103E30000C464209002009210026FDF777FC0727E0
:103E400011E000BF00200921FDF74AFCB8400643FD
:103E5000002007210122FDF74DFC0120FFF74CFA5D
:103E6000013F781C12D0002007210022FDF742FC00
:103E70000120FFF741FA012CE4D125FA07F000F008
:103E8000010200200921FDF735FCE1E7F0B201B0A5
:103E9000F0BD000040F25C0040F2E51AC1F2000003
:103EA00040F2E81643F6C87740F2C019C1F2000AA2
:103EB00000F10408C1F20006C1F20007C1F20009D6
:103EC000002403E04FF4FA7000F0A8FB9AF8000019
:103ED0000228F7D10025C34607E000BF47F8254078
:103EE0000135032D0BF10C0BECD030685BF8041C92
:103EF0008842F3D17068DBF800108842EED1B068D8
:103F0000DBF804108842E9D157F825000028E7D1F2
:103F1000012047F8250059F8250000F02FFCDFE7C5
:103F200047F2040100EB8000C0F2000101EB8000C9
:103F30000169C0684A691C23104208BF1823C85091
:103F400070470000ACB040F25C004CF214071CACAF
:103F500047F20409C1F20000C4F2000704F1060AA6
:103F60000026C0F2000904300DF120080DF1600BAD
:103F700000250390CDF818A006E047F2F210C0F239
:103F80000000FFF7CDFD00253878C00700F0A780BE
:103F900017F8140C0A2807D03E2D05DC0D2803D095
:103FA00060550135F0E700BF012DEDDB204693A100
:103FB00005226655FCF7BAFC78B11C9844F64351CB
:103FC000C3F64421884218D020468EA10622FCF771
:103FD000ADFC00284DD00025D6E740F2E510C1F237
:103FE000000047F2752105782046C0F20001FCF779
:103FF0008BFC002869D000258BE040F2E510C1F26F
:104000000000007801286ED1002602E014363C2E14
:104010006ED059F806504046102197A22B46FCF767
:1040200009FA5846102197A22B46FCF703FA2046BE
:104030004146FCF769FC50B109EB0600D0E90310DA
:10404000816147F2C210C0F20000FFF769FD20460F
:104050005946FCF759FC0028D8D009EB0600D0E9F6
:104060000310C16147F2DA10C0F20000FFF758FDFB
:10407000CCE740F2E510C1F20000007802283AD106
:10408000504647F2642AC0F2000A5146FCF736FC5B
:10409000064600205146FCF731FC079000205146AF
:1040A000FCF72CFC054600205146FCF727FC824615
:1040B0000798002E18BF00284DD161A0FFF730FDF2
:1040C000DDF818A0002500265EE747F26A212046A9
:1040D000C0F20001FCF718FC78B1012519E00220BC
:1040E00000F09CFA50E747F24710C0F2000048E7A2
:1040F0000025002648E745A043E747F27A212046FD
:10410000C0F20001FCF700FC00284FF0020018BFCD
:10411000054640F2E511C1F20001087885423FF4FE
:104120002CAF00200D7000BF09EB0001D1E9032185
:1041300014303C28CA61F7D143F6D820C1F2000000
:10414000006818B94FF0FF30FFF7F0F847F2A510FC
:10415000C0F2000015E7002DAFD0BAF1000FACD0CF
:10416000FCF7BEFB07902846FCF7BAFB05905046CB
:10417000FCF7B6FBDDF80CA00025049059F805000B
:104180003146FCF745FC60B114353C2D0AF10C0AB0
:10419000F4D147F21410C0F20000FFF7C1FC002573
:1041A00028E007980025182828BF28464AF8040C5C
:1041B000059847F27A123C2828BF2846CAF8000022
:1041C0000498C0F200023C2828BF2846CAF8040020
:1041D0005AF8040CDAF80010DAF804C0CDE900014E
:1041E000404640213346CDF808C0FCF723F940464D
:1041F000FFF796FCDDF818A00026C5E64D4F4445B4
:104200003A00000054494D45523A00002D3E204CE2
:104210004F493A204C656E682054494D4552206301
:10422000686920686F617420646F6E672074726FB4
:104230006E67204D4F44452054494D4552210A0098
:104240002D3E204C4F493A20536169206375207000
:104250006861702E204D61752064756E673A205438
:10426000494D45523A4865617465723A31343A3382
:10427000303A30300A000000434D443A25733A4F3B
:104280004E000000434D443A25733A4F4646000025
:10429000A4B040F2CC1640F2E51840F2D017C1F2BB
:1042A0000006C1F200080FF24C09C1F200070FF23C
:1042B000500A04AD30684FF0FF3100F03DFA98F835
:1042C0000000524659F8203038687968BC68CDE95A
:1042D0000001284680210294FCF7ACF8306800F019
:1042E0001FFA2846FFF71CFC40F6B83000F096F99C
:1042F000E0E700BF757200006A7200007A72000089
:104300004D4F44453A2573207C2054454D503A2565
:1043100064207C204D4F4953543A2564207C204C26
:10432000494748543A25640A0000000040F2E8106A
:10433000C1F2000081680131816081683C29B8BF09
:1043400070470021816042680132426042683C2A25
:1043500008DB416001680131016001681829A4BFD0
:104360000021016070470000F0B581B045F6C8211A
:10437000C0F20001D1E909564F690446132001211A
:10438000A8477020ADF801000DF1010003218DF860
:104390000340B847B047C007FCD113200021A8470D
:1043A00001B0F0BD10B582B040BAADF8060045F6D8
:1043B000C820C0F200004269846A0DF106000221A3
:1043C000904700BFA047C007FCD102B010BD00005D
:1043D00080B545F6C820C0F20000426A13200121D2
:1043E00090477220FFF706FD80BD000080B545F6BE
:1043F000C820C0F20000426A13200021904780BD0F
:10440000F0B581B00C4670218DF80110010A8DF8CD
:10441000021045F6C821C0F20001D1E909564F69E2
:104420008DF8030013200121A8470DF1010003219D
:10443000B84700BFB047C007FCD113200021A847F0
:1044400072208DF80100200A8DF80200132001214E
:104450008DF80340A8470DF101000321B84700BFC4
:10446000B047C007FCD113200021A84701B0F0BD20
:104470000000000010B5002A06DA22F00042D21D2A
:1044800022F00703102203E0D21C22F003030C22C7
:1044900013B19C188C4201D9012010BD0244014483
:1044A0008360C0E90021C91AD018884202D8106080
:1044B0000246F9E70020106010BD30380A2801D20A
:1044C000012070470020704708480068C0010BD5E4
:1044D00007480068C00707D00548803800680028F2
:1044E00002DA04490120087070470000FCED00E08A
:1044F000800E00E0280000104FF06042D36F002BC8
:10450000FCD0036BD367D36F002BFCD0C07840EA9C
:104510000120A2F87C0070474FF06041CA6F002A6A
:10452000FCD081F87C0070470EB5802200B109B143
:1045300010460AE001780129FAD101A900F034F807
:10454000042801D0002000E01020DDE9011203B0B2
:1045500000BD70B50D46040003D012B920780128C3
:1045600001D0802070BD204600F038FB28B12946DC
:10457000204600F044F8002070BD812070BD10B5C9
:1045800000F0AAFA10B10178022901D0802010BDF4
:104590004188A1F57F42FF3A03D000F037F80020B0
:1045A00010BD812010BD000010B504468089002890
:1045B00024D0608904EB800000690860606840B125
:1045C0006078022805D10021204600F00BFD00F0A4
:1045D000F9FC04F10C0000BFD0E85F1F491E8AB24D
:1045E000C0E8512F0029F7D16089401C80B260815A
:1045F000E189884201D100206081042010BD10B5FE
:1046000000F0F0FCBDE8104000F0DCBC10B500216B
:1046100000F0E8FCBDE8104000F0D4BCEFF30581E9
:1046200009B182207047DFF808C000DF7047000042
:10463000C5560000EFF3058008B182207047EFF304
:104640001480C00703D0DFF80CC000DF704701F012
:1046500043B80000D956000088B0EFF3058010B1D0
:10466000822008B07047EFF3148010F00301134864
:1046700006D001291BD0022911D0032919D113E03A
:1046800008A981F309880078C0070BD05FF0020009
:1046900080F31488BFF34F8FBFF36F8F09E000786A
:1046A000C00706D10320F3E70078C00701D0FF2040
:1046B000D7E7DFF80CC000DFD3E700004D70000043
:1046C00049570000EFF3058008B100207047DFF87C
:1046D00008C000DF7047000091570000EFF305822B
:1046E0000AB1FFF721BFDFF808C000DF7047000004
:1046F000ED570000EFF3058109B100207047EFF39B
:104700001481C90702D10449497819B1DFF80CC0F6
:1047100000DF704701F087B8040000102758000040
:10472000EFF3058109B182207047DFF808C000DF90
:104730007047000043580000EFF305820AB1822061
:104740007047DFF808C000DF7047000065580000C0
:10475000EFF305820AB100207047EFF31482D2070D
:1047600002D1044A52781AB1DFF80CC000DF70475A
:1047700001F095B8040000109F580000EFF3058188
:1047800009B1FFF7FCBEDFF808C000DF704700008A
:10479000C3580000EFF3058212B14FF0FF307047AD
:1047A000DFF804C000DF7047EB580000EFF305822C
:1047B0000AB100207047EFF31482D20702D1044AF5
:1047C00052781AB1DFF80CC000DF704701F0A6B8CC
:1047D000040000101D590000DFF80CC000DFDFF8F6
:1047E0000CC000DFFEE7000089590000A559000059
:1047F000DFF804C000DF7047DD590000094C4FF0BE
:10480000FF3529462068FFF769FF02460846102A4F
:10481000F7D1FFF7EDFF0028F3D002460846904796
:10482000EFE70000C0340010074801684FF0E020B7
:10483000416100218161072101610448016841F063
:104840007F410160401770471071000020ED00E0CB
:104850007047000002480068C0F3806070470000A5
:1048600004ED00E04FF0E020806902490968081A71
:10487000704700001071000050E8001F31B10B6854
:1048800040E80032002AF7D108467047BFF32F8F67
:10489000FAE710B568B161B10B3121F0030201688C
:1048A00044680B1A1B1B934205D20846096800296D
:1048B000F5D1002010BD210007D021180368C1E9FF
:1048C0000032016001F1080010BD4260083010BDE7
:1048D00070B50D46002812D04FF6FF71084C884283
:1048E00004D222680146104600F0AAFB20684570F9
:1048F000044800F0DDF8BDE8704000F0A1BC70BDD8
:104900000C000010B40000100F4810B50D494268AB
:104910000E480B680068934204D00A60CB88421EA0
:104920001A448A808A8880B282420AD100200860B4
:10493000054800F0BDF80146BDE81040024800F00F
:10494000A3BB10BD20000010B40000101C0000101C
:1049500070B5194DE86800282CD0A88A401EA8829E
:10496000002621E0A06838B161684160606810B13C
:10497000A16881606660A6600F482146183800F083
:1049800083FBA08AA8826078042804D10B49E08ABE
:1049900009880844A08201206070E068E860E0684F
:1049A00008B10561E6602661A88A002802D1EC689A
:1049B000002CD7D170BD0000CC0000101C000010EE
:1049C00070B504000FD00D4DA178012628688278BB
:1049D00091420CD900F074FB286846702046BDE86F
:1049E000704000F02DBC064800F062F8F7E76670F2
:1049F0002146BDE87040024800F046BB0C000010A4
:104A0000B40000100321FFF763BF000010B5044697
:104A1000008B084320836278618B062A18D0052A10
:104A200019D1084217D001EA00026283884320832B
:104A3000204600F070FB01206070628B0821204648
:104A400000F065FB2146BDE81040034800F01CBBA8
:104A500031EA0002EAD010BDB4000010814202D356
:104A600042688A4201D80120704702680A60BFF399
:104A70005F8F50E8003F0A689A42F6D140E8001282
:104A8000002AF2D10020704768B161B100220839D4
:104A900002E00246006830B18842FAD12AB10068CB
:104AA0001060002070470120704700214160F8E746
:104AB0000146406842684A600B780022022B05D00C
:104AC000012B03D0032B01D04260704743680BB128
:104AD0009960426082607047810700D00020704773
:104AE00070B5044600201546207001226270A17046
:104AF00084F824106060A060E06020612062A082E1
:104B0000E0822083608384F82500E08C18B9054892
:104B1000FFF7B2FEE06229462046BDE8704000F093
:104B20001DB800000002001008B1082901D20120C0
:104B300070470144091F002201600A60426010466C
:104B40007047000003480021016003490988C180C3
:104B500070470000200000106470000070B5C28C27
:104B60001C4D930802D12A88C2F38D03C26A02EB5E
:104B70008302540700D5121F4FF0807442E90214DB
:104B800000242646B2F1400242F82460641C0E2C38
:104B9000FAD3C4691462826201632968C90014D51A
:104BA000112B12D94FF0FF31103B11EB53014FF095
:104BB000CC3305D042F8043C42F8083D491EF9D1F7
:104BC000C16A121F8A4200D91360C06A024901609B
:104BD00070BD000078700000A52E5AE2C18980895E
:104BE000081A7047012202700022427082704260EF
:104BF00002814281103982818908C1817047000099
:104C00002DE9F041044640680E464FF0000804F1DB
:104C10000C05E8B36078012701283ED0022813D0A4
:104C200003285CD10846FFF727FE050057D0204631
:104C3000FFF73EFF0446294600F066FA67702046FB
:104C400000F069FA214621E02046FFF731FF0646D1
:104C5000002100F059FA2189F06904EB8101086113
:104C6000D5E85F0F401C81B2C5E8501F0028F7D17E
:104C70002089401C80B22081E189884201D1A4F8BA
:104C800008807770304600F046FA3146174800E059
:104C90000CE0BDE8F04100F0F7B92046FFF708FF4F
:104CA00004463246102100F032FAC7E7A089E189B4
:104CB000884216D2208904EB80000661D5E85F0F98
:104CC000401C81B2C5E8501F0028F7D12089401C44
:104CD00080B22081E189884201D1A4F80880BDE832
:104CE000F081BDE8F0410320FEF762BEB400001081
:104CF00070B50446808915460026C0B3608904EB70
:104D00008000006908606089401C80B26081E18990
:104D1000884200D16681606810B1607802280BD0AB
:104D200014F10C04D4E85F0F401E81B2C4E8501F98
:104D30000028F7D1002070BD2046FFF7B9FE0546D8
:104D4000002100F0E1F92189E86904EB81010861A3
:104D50002089401C80B22081E189884200D12681CF
:104D6000284600F0D8F92846FFF72AFEE2E7FFE7D9
:104D70003DB10B48626801682AB1204600F084F911
:104D800008E0012070BD616001684E6000688460C9
:104D90000120607008212846FFF79AFDF1E7000026
:104DA0000C000010002814D0411C13D00C4A4FF600
:104DB000FE7190420CD800EB4002C2EBC0120948D1
:104DC000036803EBC202521EB2FBF3F0884204D91F
:104DD000084670474FF6FF70704780B2704700007A
:104DE00000093D004870000003210170002141804E
:104DF00041608160C16070472DE9F0410446408800
:104E000020B1314DA1682A68914202D0FF20BDE84F
:104E1000F081401E0004000C608053D12968086AAC
:104E2000A04209D1E068086208E0C268A24202D14B
:104E3000E268C26002E010460028F6D191F8240032
:104E40000A6A06E053681BB19B78834200D9184672
:104E5000D268002AF6D18870DFF870806168012678
:104E600011B32046FFF724FE0746002100F04CF95D
:104E7000384600F050F96680A760386AE0603C620E
:104E80002968D8F804008A788078824201D33846AD
:104E900016E00E4800F0F8F839460C4800F0F4F837
:104EA000286846707E700AE0D8F804108A7829686D
:104EB000824207D9054800F0E7F8286846700020CC
:104EC000FFF77EFD0020A2E70C000010B4000010E8
:104ED00070B51C4D0E4604464188286861B1A26831
:104EE000824210D1A1F57F40FF3803D0491C618078
:104EF000002070BDFF2070BDA060016AE160046207
:104F000001206080F4E776B191788078814203D205
:104F10009070A06800F0DEF8606830B12046296823
:104F200000F0B2F808E0012070BD286860602968D0
:104F3000002048602868846009213046FFF7C8FCDB
:104F4000F1E700000C00001070B51B480121026859
:104F50005170006800F0B4F8184D6C7818E000BF8C
:104F600005EBC40148680278EAB1012A20D000F0BC
:104F700005F9E878641C844200D100240F48801CA5
:104F8000D0E84F1F491EC9B2C0E8421F002AF7D11E
:104F9000A8780028E4D16C700948FFF789FDBDE8C6
:104FA000704000F04DB9098989B2FFF72FFDE0E7A5
:104FB0008968FFF725FEDCE70C000010FC340010C8
:104FC000B40000100548017811B10121417070470B
:104FD00003494FF080500860704700001400001033
:104FE00004ED00E0F0B4154DAB1CEE784FEA050778
:104FF000D3E84F2FB24202D1BFF32F8F11E0521CE2
:10500000D4B2C3E8424F002AF2D100BFD7E84F2FF5
:10501000541CB44200D10024E4B2C7E8434F002B33
:10502000F4D1EB78934205D905EBC202C2E9010144
:10503000F0BC7047F0BC0220FEF7BABCFC34001094
:10504000104A10B5D368ABB113469B8A03E08CB10C
:105050002246A48A2344D4688B42F8D3C460D0602B
:105060000261C46804B12061591A8182908A401A91
:10507000908210BD0024C460D060C91A0261918280
:10508000848210BDCC00001030B502780023022AC3
:1050900003D0012A01D0032A00D101238C7800E03B
:1050A0001046426812B19578A542F9D24A60416033
:1050B0001BB102B19160886030BD0020FBE70000A9
:1050C00003494A68426000228260486070470000DD
:1050D000B400001010B5836804462BB9607801282D
:1050E0000ED1084B03E09B6818780028FBD02046BF
:1050F00000F026F82146BDE810401846FFF7C4BF6F
:1051000010BD0000B4000010806A01627047806A20
:10511000C0E90812704710B5016900290ED0C268B5
:10512000CA60C36800223BB18B8A848A23448B8285
:10513000C3681961C26000E08A82026110BD00008C
:10514000816839B142684A604168002901D08068AD
:1051500088607047054906E04A68824202D140688B
:105160004860704711460029F6D17047B40000101E
:1051700002220270002242604180704710B54168EF
:1051800081B1FFF795FC0446FFF7C5FF0120607071
:1051900001462046FFF7B8FF2146BDE8104003480E
:1051A000FFF772BF4188491C418010BDB400001058
:1051B00010B5416861B1FFF77BFC04460121FFF7A0
:1051C000A3FF2046FFF7A7FF2046FFF7F9FB02E009
:1051D0004188491C4180002010BD000010B50C46DC
:1051E000418819B1491E4180002010BD34B10A4ADE
:1051F0004368116823B1FFF747FF07E0012010BDA6
:1052000041601368002159601168886007212046B9
:10521000FFF75EFBF2E700000C0000100648006894
:10522000D0E90A10814203D300680449884202D0C1
:105230000120FEF7BDBB70470C000010A52E5AE2FE
:105240000749022248604270064A1278002A05D0B7
:1052500006C98A4202D0C078FFF75EB970470000E5
:105260000C0000102800001070B5FFF72DF9002089
:105270000446204A204902E042F82040401C0B88A6
:105280009842F9D31D48342201881D48FFF7F2F8EF
:105290001C48008880B240F000421B4801681B484F
:1052A000FFF7E8F81A48082201881A480068FFF753
:1052B000E1F8194DFF20194AE870EC8400212846D6
:1052C000FFF70EFC16480421017044601548017078
:1052D000C460046184821448154905600220687026
:1052E0001248047044700978C170BDE87040FFF73F
:1052F00029BC0000C83400104E700000447000004B
:1053000010320010787000004070000000020010A1
:1053100046700000FC01001080000010B53900004C
:10532000B4000010CC0000100C000010FC34001081
:105330004C7000001B4810B5016841F47F0101600A
:1053400000684FF07F4101EA00201649C04314393C
:10535000B0FA80F00968C0F10800C1F3022181426F
:1053600000D3481C0F49091F0B686FF08072824000
:1053700063F317020A60FFF757FA0B490028086029
:105380000EDB00F1E021FF2281F8002400F01F0273
:10539000012191404009800000F1E020C0F8001197
:1053A00010BD000020ED00E0180000100C4810B502
:1053B0000268012151700068FFF782FEFFF7A4FA2E
:1053C00008480168491C0160FFF7C2FA00F012FBAF
:1053D0000548FFF76DFBBDE81040FFF731BF000047
:1053E0000C0000101C000010B4000010002805D0B4
:1053F000810702D10178002900D000207047000009
:1054000030B50B4C0023626805E095688D4204D8E6
:1054100013461268491B002AF7D10260816012B15D
:105420009568691A91600BB1186030BD606030BD3D
:10543000040000102DE9F0411E46174680460D4637
:1054400011F0FF0F00D14D1C1848FFF715FA041E8C
:1054500016D0280AE762E084E9B242462046E661B7
:10546000FFF73EFB01251248124905E000EB8502DB
:1054700052F8042C32B16D1C0A889542F6D90020EE
:10548000BDE8F081002DFAD000EB850040F8044C17
:105490000948E570007818B101212046FFF72CF883
:1054A0002046FFF78DFA2846EAE700001032001088
:1054B000C83400104E700000280000102DE9F05F85
:1054C000584DDFF85891DFF8588129684FF0010AEC
:1054D000002618B1CA78AB46824243D14E70FAF723
:1054E00078FE29688862FFF799FE2868046A1FE041
:1054F0006068C0B12046FFF7DBFA07460021FFF7DE
:1055000003FE3846FFF707FE87F801A039464648F4
:10551000FFF7BAFDE168A4F802A0A760386AE0606E
:105520003C620C4604E0E0686680A660E6600446E3
:10553000002CDDD12868C27808EB820141F8046CA8
:10554000C16A3A48FFF78AFA2868C66299F80010DB
:1055500011B10021FEF7D0FF35482968FFF77EFA28
:105560002E6056E03349098888420CD808EB800841
:1055700058F8045C3DB12846FFF7E2FD2846FFF7E6
:10558000CAFD2C6A22E0FF20BDE8F09F6068C0B130
:105590002046FFF78DFA07460021FFF7B5FD384694
:1055A000FFF7B9FD87F801A039461F48FFF76CFDEA
:1055B000E168A4F802A0A760386AE0603C620C468B
:1055C00004E0E0686680A660E6600446002CDDD159
:1055D00048F8046C1548E96AFFF740FAEE6299F85A
:1055E000000018B100212846FEF786FF2946104822
:1055F000FFF734FA0C48DBF8001040688B788278AB
:105600009A4209D981F801A00748DBF80010FFF79A
:105610003BFD0020FFF7D4F90020B5E7280000107B
:10562000C83400100C000010B4000010000200107C
:10563000103200104E70000070B51A4D80B11A4A39
:10564000128890421FD8194A02EB800050F8044C8F
:10565000CCB1A17084F824102868A04205D014E0D1
:1056600028688170286880F8241011484068807884
:10567000884215D90E482968FFF706FD29680120E0
:10568000487000200AE0FF2070BD2046FFF722FD91
:105690006078012804D10648FFF70AFAFFF790F96D
:1056A000002070BD0C0000104E700000C8340010C7
:1056B000B400001002480068002800D0C07870478D
:1056C0000C00001010B5002804D0FFF76BFBFFF7AB
:1056D00099F9402010BD000010B5134C207860B936
:1056E0001248400705D1124801681048FFF71CFA1C
:1056F00008B1852010BDFFF7B7FD0E49FF200968EE
:105700008870207858B900210B4800F05DF80B49EB
:10571000086000210A4800F001F90A4908600120E8
:1057200020700020607010BD04000010E8350010EB
:10573000747000000C00001050700000C0340010A5
:10574000BC700000C434001070B50F4D687808B10B
:10575000002070BD0D4C206890F824100020FFF749
:105760006BFF2068C178FF2903D1816A203181F362
:105770000988616811B9606000202060FFF7DAFDD8
:1057800001206870E4E70000040000100C00001025
:1057900070B5FFF767F80446FFF75CF80849094E53
:1057A0000D686D1C48B1FFF75DF8A04200D20446B9
:1057B0003068401C05FB004070BD3068FAE700000F
:1057C000107100001C00001010B5040005D0216805
:1057D00019B1606808B102780AB1002010BD8900D3
:1057E000103189B2FFF7FEF9606810BD3EB50400C4
:1057F0000D464FF0800012D0217801290FD12846A4
:10580000FFF7D0FA0246204601A9FFF771FA0128F6
:1058100001D0102003E00DB1402000E00020DDE9C0
:10582000011203B030BD10B5002804D004680CB1DB
:10583000207808B1002010BD2046FFF7D5FA204699
:1058400010BD10B5FFF748F910B10178032901D058
:10585000802010BDFFF7D0FAFF2801D0002010BD36
:10586000812010BD70B50D46FFF736F9040002D057
:105870002078032801D0802070BD2846FFF792FAD7
:1058800001462046FFF724FB012803D0FF2804D05F
:10589000002070BD0DB1C12070BD812070BD10B55C
:1058A000002807D0046824B1207810B9B1F5803FF2
:1058B00001DB002010BD89B22046FFF759FC2046CD
:1058C00010BD10B5FFF708F910B10178022901D019
:1058D000802010BD4188A1F57F42FF3A03D0FFF739
:1058E00067FC002010BD812010BD70B50D46FFF78C
:1058F000F3F804004FF0FF300DD0217802290AD1CF
:105900002846FFF74FFA01462046FFF767FC0128BB
:1059100002D06088401C70BD002070BD70B50E467E
:10592000040029D0206838B3606810F1030F23DB2E
:10593000032821DCE16829B11048FEF7AAFF050021
:105940001AD000E000256068E168001D40EA0121EE
:1059500033462A462068FFF76DFD40B1084901EB48
:105960008000084950F8040C826A516370BD1DB173
:1059700029460248FFF788F8002070BDE83500107E
:10598000C8340010D947000010B5FFF793FE002877
:1059900004D0034901EB800050F8040C10BD000056
:1059A000C834001010B5FFF721FD18B1C18C19B132
:1059B000C46A02E0802010BD0024C078FFF77EFD9D
:1059C000FF2806D01CB121460348FFF75DF80020F0
:1059D00010BD812010BD0000E835001010B5FFF7A4
:1059E0007BF820B141690A680169104610BD0020AA
:1059F000014610BD2DE9F041134E7468002C1CD0F7
:105A0000A068124F401E4FF00108A06012E025462A
:105A100024687460002229463868FEF79AFD10B1A8
:105A20000420FDF7C5FF6879012808D085F80480B7
:105A3000002C02D0A0680028E9D0BDE8F0812846FB
:105A4000E968FFF7DDFCF3E704000010C034001044
:105A500010B500290AD00878002807D005487844F6
:105A6000FAF7D6FF002801D0002010BD0248784484
:105A700010BD00005A19000052190000000000007B
:105A80000000000030313233343536373839414286
:105A90004344454640305800303132333435363790
:105AA000383961626364656640307800040000083C
:105AB00000000000000000020001000010000000D3
:105AC000020001005200040059190000551900009D
:105AD0001D1900004919000029190000391900009A
